:020000040800F2
:1000000000040020ED950008CB3B0008CB3B000826
:10001000CB3B0008CB3B0008CB3B0008CB3B0008A8
:10002000CB3B0008CB3B0008CB3B00080541000858
:10003000CB3B0008CB3B0008CB3B0008ED40000861
:10004000CB3B0008CB3B0008CB3B0008CB3B000878
:10005000CB3B0008CB3B0008CB3B0008CB3B000868
:10006000CB3B0008CB3B0008CB3B0008A93C000879
:10007000DD3C0008153D00084D3D0008853D0008A9
:10008000B93D0008F13D0008CB3B0008058400089D
:10009000158400082584000835840008CB3B00083F
:1000A000CB3B0008CB3B0008CB3B0008CB3B000818
:1000B000CB3B0008CB3B00084D8C0008CB3B000835
:1000C000CB3B0008CB3B0008CB3B0008CB3B0008F8
:1000D000CB3B00082F8D00083F8D00084F8D000896
:1000E000CB3B0008CB3B0008CB3B0008CB3B0008D8
:1000F000CB3B0008CB3B0008CB3B0008253E00086B
:10010000CB3B0008BD3300085B8C0008CB3B0008EC
:100110005F8D00086F8D0008CB3B0008CB3B0008CB
:10012000533E00087D3E0008AB3E0008D93E000863
:10013000073F0008CB3B0008CB3B00084584000884
:10014000558400086584000875840008CB3B0008CE
:10015000313F00085F3F00088D3F00087F8D000899
:10016000CB3B0008CB3B0008CB3B0008CB3B000857
:10017000CB3B0008CB3B0008CB3B0008CB3B000847
:10018000CB3B0008CB3B000830B403000C0015004B
:100190006A1E002D04D025781D70641C5B1CF6E7D8
:1001A00030BC704710B403001400621E002C02D053
:1001B00019705B1CF8E710BC704770B403001C009A
:1001C0000D0000201600721E002E06D020782E781A
:1001D000801B6D1C641C0028F4D070BC7047027832
:1001E000002A04D002788A4201D0401CF7E7007848
:1001F000704710B50400E06801F0C2FF10BD38B5CB
:1002000004000D00EDB20C2D0BD0EDB20B2D08D07B
:10021000EDB2092D05D0EDB20F2D02D0E06801F04E
:10022000BDFF31BDF8B504000D00206B0600AE42E5
:1002300032D02079002821D00123320014F134017A
:10024000607802F01EF8002801D0012025E000208F
:100250002071606A216A081886420FD2E078070090
:10026000FFB2022F0ADB206A86190123320014F143
:100270003401607802F005F87F1EF1E7002D0BD005
:1002800001232A0014F13401607801F0DDFF002819
:1002900001D0012001E025630020F2BD38B5040043
:1002A00000212000FFF7BEFF0500EDB2002D5ED15A
:1002B0002078032852D1607900284FD00020206395
:1002C0004FF40072002114F13400FFF76BFF55204A
:1002D00084F83202AA2084F83302522084F83400D1
:1002E000522084F83500612084F83600412084F8DB
:1002F0003700722084F81802722084F81902412015
:1003000084F81A02612084F81B02606984F81C02D8
:10031000606980B2000A84F81D026069000C84F8EC
:100320001E026069000E84F81F02206984F8200212
:10033000206980B2000A84F821022069000C84F848
:1003400022022069000E84F823020123A26914F11D
:100350003401607801F095FF0020607100220021D7
:10036000607801F0ABFF002801D0012005002800D3
:10037000C0B232BD0200891ED069801E814201D305
:10038000002003E09078D26A00FB012070472DE93D
:10039000F04104000D00022D02D3E069854201D333
:1003A000012071E02078012804D06BD303284AD0C3
:1003B00031D367E0A84618EB5808606A10EB582163
:1003C0002000FFF72FFF00285CD14FF40070B8FB2E
:1003D000F0F101FB1081081990F83400060018F1C3
:1003E0000108606A10EB58212000FFF71BFF00286E
:1003F00048D14FF40070B8FBF0F101FB10810819EF
:1004000090F8340056EA0026E80701D5300901E0EB
:100410003005000D38E0606A10EB15212000FFF771
:1004200001FF00282ED168004FF40071B0FBF1F2FB
:1004300002FB11021019343007007878397851EA3C
:10044000002080B220E0606A10EBD5112000FFF799
:10045000E9FE002816D1A8004FF40071B0FBF1F2BC
:1004600002FB1102101934300700F878B97809043A
:1004700051EA0060797850EA012039780843000198
:10048000000901E05FF0FF30BDE8F0812DE9F8439D
:1004900004000D001600022D02D3E069854202D34C
:1004A00002208146A0E02078012805D0C0F0988085
:1004B00003286BD04CD393E02F0017EB5707606AEB
:1004C00010EB57212000FFF7ADFE81465FFA89F956
:1004D000B9F1000F40F086804FF40070B7FBF0F1E7
:1004E00001FB1071081934308046E80706D598F8EA
:1004F000000010F00F0050EA061000E0300088F80D
:1005000000007F1C01202071606A10EB5721200041
:10051000FFF788FE81465FFA89F9B9F1000F61D1D2
:100520004FF40070B7FBF0F101FB10710819343083
:100530008046E80701D5300907E098F8000010F080
:10054000F000310A11F00F01084388F8000049E07B
:10055000606A10EB15212000FFF764FE81465FFA08
:1005600089F9B9F1000F3DD168004FF40071B0FB7B
:10057000F1F202FB110210193430804688F8006055
:10058000300080B2000A88F801002BE0606A10EBAE
:10059000D5112000FFF746FE81465FFA89F9B9F1CF
:1005A000000F1FD1A8004FF40071B0FBF1F202FB65
:1005B000110210193430804698F80300000610F03C
:1005C0007040064388F80060300080B2000A88F866
:1005D0000100300C88F80200300E88F8030001E0BA
:1005E00002208146012020714846C0B2BDE8F28356
:1005F000F8B504000D00022D02D3E069854202D354
:10060000022006002AE000200600E069854225D28B
:1006100029002000FFF7BBFE0700002F1ED0012F8E
:1006200002D10220060019E017F1010F02D10120CA
:10063000060013E0002229002000FFF727FF060034
:10064000F6B2002E0AD1606910F1010F04D0606982
:10065000401C6061012060713D00D6E73000C0B2EF
:10066000F2BD2DE9F84304000D00002D0AD12069E8
:100670008046B8F1000F02D0E069804511D3012017
:1006800080460EE029002000FFF781FE0600022EC2
:1006900001D2012051E0E069864201D230004CE0F5
:1006A000A84647467F1CE069874205D30220070021
:1006B000B84501D2002040E039002000FFF767FE76
:1006C0000600002E0CD17FF0704239002000FFF7A9
:1006D000DDFE81465FFA89F9B9F1000F13D10AE016
:1006E00016F1010F01D0012E01D1300025E0474560
:1006F000D8D1002021E0002D05D03A0029002000AB
:10070000FFF7C4FE81465FFA89F9B9F1000F0AD1FB
:100710002761606910F1010F0ED06069401E6061B1
:100720000120607108E05FFA89F9B9F1010F02D187
:100730005FF0FF3700E001273800BDE8F283F8B52D
:1007400004000D00E580A0680600012E03D020689B
:10075000C069864201D302204BE0002E06D12068FA
:100760000078032802D12068806A0600002E0ED18E
:10077000E66020680089ADB2854201D3022038E0EE
:100780002068806AADB210EB1510206125E020686A
:10079000807880B200010700ADB2BFB2BD4213D372
:1007A00031002068FFF7F3FD060016F1010F01D1BB
:1007B00001201EE0022E03D32068C069864201D3C7
:1007C000022016E0ED1BE7E7E66031002068FFF746
:1007D000D1FDADB210EB15102061ADB21020B5FB0C
:1007E000F0F101FB1051206810EB411034306061D2
:1007F0000020F2BD2DE9F04104000F00E088401C0C
:100800000600B6B2002E02D02069002801D10420D3
:100810008EE0B6B21020B6FBF0F101FB10610029AA
:1008200079D12069401C2061E068002806D1206849
:100830000089B6B286426ED3042079E0B6B2206851
:100840008078401E10EA161F65D1E1682068FFF726
:100850009EFD0500022D01D2022069E015F1010F75
:1008600001D1012064E02068C06985424DD3002F8A
:1008700001D104205CE0E1682068FFF7F2FE05008A
:10088000002D01D1072053E0012D01D102204FE0BE
:1008900015F1010F01D101204AE000212068FFF786
:1008A000C1FC002801D0012042E04FF40072002179
:1008B00020683430FFF776FC29002068FFF75AFDE6
:1008C0002168086300208046206880785FFA88F8F5
:1008D000804512D220680121017100212068FFF7B4
:1008E000A1FC002801D0012022E02068006B401C00
:1008F0002168086318F10108E6E72068006B5FFAD9
:1009000088F8B0EB080021680863E56029002068DA
:10091000FFF730FD2061E680B6B21020B6FBF0F1A3
:1009200001FB1061206810EB411034306061002041
:10093000BDE8F0812DE9F84304000D00287830F07F
:100940004000401E0D214843060000200700012002
:100950008046DFF89C08385C40194078DFF8901832
:10096000795C495D51EA002081461FFA88F8B8F1A8
:10097000000F12D0484680B201F0F3FC8046FF2EF3
:1009800009D234F8160001F0ECFC761C1FFA88F846
:1009900080B2804509D0002019E01FFA89F94FF68E
:1009A000FF70814501D0002011E07F1C0D2FD0D3B6
:1009B000287840060AD51FFA88F8B8F1000F05D04C
:1009C00034F81600002801D0002000E00120BDE826
:1009D000F283F0B44B730F27CF7200270F730027F9
:1009E0008F760027CF76D2B2571E5FF00D0C0CFB2E
:1009F00007F73C0000273E00BFB23D00B6B24FF6FD
:100A0000FF77BE4203D030F814703E00641CDFF85C
:100A1000E077EF5D7E54DFF8D877EF5D7F18B6B2F0
:100A20005FEA162C87F801C0B6B2002E02D14FF64D
:100A3000FF773E006D1C0D2DE0D3B6B24FF6FF7769
:100A4000BE4203D030F81470002F01D152F04002A2
:100A50000A70F0BC70472DE9FC4704000D00160039
:100A600099460B2229002000FFF78EFB1FFA89F917
:100A7000B9F1060F0CDB1FFA89F95FEAC93010EBF8
:100A80005900318811EB0009B61C30880028F2D1DA
:100A9000072080461FFA89F9102099FBF0F101FB2D
:100AA000109111F130000700FFB23A2F00DBFF1D5B
:100AB00000A808F80070B8F101081FFA89F91020A1
:100AC00099FBF0F91FFA89F9B9F1000FE2D100A8FA
:100AD0007E2108F8001000208246C24506D21AF88E
:100AE0000400202802D01AF1010AF6E7504610F15E
:100AF000010AB8F1080F05D200A918F8011018F181
:100B0000010800E020210155BAF1080FEED3BDE83D
:100B1000F387010000200B22C0B2C30113EB500089
:100B20000B781818491C521E002AF5D1C0B2704724
:100B30002DE9F047040000212000FFF700FE824667
:100B40005FFA8AFABAF1000F02D05046C0B272E0E2
:100B5000FF208146804621692068FFF763FB8246BB
:100B60005FFA8AFABAF1000F63D160690600307843
:100B70000500EDB2002D02D10420824659E0F07A42
:100B800010F03F000700EDB2E52D04D0380705D581
:100B9000FFB20F2F02D0FF20804640E0FFB20F2FA0
:100BA00021D1E06900283AD0680606D5707B8146DD
:100BB00015F0BF05A846E0882084EDB25FFA88F8FA
:100BC00045450DD1707B5FFA89F9814508D1310027
:100BD000E069FFF7AFFE002802D0B8F1010801E09C
:100BE0004FF0FF081BE05FFA88F8B8F1000F06D15C
:100BF0003000FFF78EFF5FFA89F9814519D0FF2099
:100C000080464FF6FF702084A069C07AC00706D4E2
:100C10000B22A1693000FFF7D0FA002809D000218B
:100C20002000FFF7E7FD82465FFA8AFABAF1000F6B
:100C300091D05046C0B2BDE8F0872DE9F04F85B0A5
:100C40000600B0698146F06982460C22494602A836
:100C5000FFF79AFA9DF81300C0072ED5002089F8F7
:100C60000B000020F06101200500ADB2642D11DA07
:100C70002B009BB2524602A94846FFF7ECFE30001B
:100C8000FFF756FF83465FFA8BFBBBF1000F01D1E4
:100C90006D1CEAE7ADB2642D01D10720C1E05FFA17
:100CA0008BFBBBF1040F02D05846C0B2B9E09DF8EF
:100CB000130089F80B00C6F81CA09DF813008007EC
:100CC0000FD500200400A4B23AF81400002801D087
:100CD000641CF8E7A4B214F119000D2190FBF1F4A3
:100CE00001E00120040000213000FFF728FD8346C9
:100CF0005FFA8BFBBBF1000F02D05846C0B290E008
:100D000000208046050031693068FFF78BFA834682
:100D10005FFA8BFBBBF1000F20D1706900780700F0
:100D2000FFB2E52F02D0FFB2002F0BD1ADB2002DE4
:100D300001D1F0888046681C050080B2A4B2A042B0
:100D400002D10BE00020050001213000FFF752FD29
:100D500083465FFA8BFBBBF1000FD4D05FFA8BFBAD
:100D6000BBF1000F37D1A4B2022C34DB414689B26B
:100D70003000FFF7E4FC83465FFA8BFBBBF1000F0A
:100D800029D1B069FFF7C5FE8DF80400641E3169F2
:100D90003068FFF747FA83465FFA8BFBBBF1000F21
:100DA00019D19DF804302200D2B27169F069FFF7C1
:100DB00010FE30680121017100213000FFF71AFD9B
:100DC00083465FFA8BFBBBF1000F04D1601E040069
:100DD00080B20028DBD15FFA8BFBBBF1000F1ED184
:100DE00031693068FFF71EFA83465FFA8BFBBBF16F
:100DF000000F14D170690090202200210098FFF7A5
:100E0000D1F90B22B1690098FFF7BEF9B069C07A39
:100E100010F01800009908733068012101715846DC
:100E2000C0B205B0BDE8F08F2DE9F34F81B0029854
:100E30000068070038782F2802D038785C2801D164
:100E40007F1CF7E70198C0690500002081468246B3
:100E50001AF8070080461AF1010A1FFA88F8B8F15B
:100E6000200F09DB1FFA88F8B8F12F0F04D01FFA02
:100E700088F8B8F15C0F09D11AEB070002990860F5
:100E80001FFA88F8B8F1200F2CDA28E0B9F1FF0F2B
:100E900001D306201CE15FFA88F80121404680B2A8
:100EA00001F038FA80461FFA88F8B8F1000F01D136
:100EB00006200DE11FFA88F8B8F1800F0ADA1FFA50
:100EC00088F84146DFF80008FFF789F9002801D0CB
:100ED0000620FDE025F8198019F10109B8E75FF057
:100EE000040B01E05FF0000BB9F1000F11D015EB1E
:100EF000490030F8020C80461FFA88F8B8F1200F3C
:100F000004D01FFA88F8B8F12E0F02D1B9F1010907
:100F1000EAE7B9F1000F01D10620D9E0002025F859
:100F200019000B22202101988069FFF73BF900206E
:100F3000824635F81A00202803D035F81A002E28EA
:100F400002D11AF1010AF4E7BAF1000F01D05BF007
:100F5000030BB9F1000F08D015EB490030F8020C73
:100F60002E2802D0B9F10109F3E7002006000400A1
:100F70000820009035F81A0080461AF1010A1FFA7D
:100F800088F8B8F1000F74D01FFA88F8B8F1200F74
:100F900006D01FFA88F8B8F12E0F04D1CA4502D046
:100FA0005BF0030BE6E70098864201D2CA4512D1F6
:100FB00000980B2802D15BF0030B5AE0CA4501D020
:100FC0005BF0030BD14554D3CA46082006000B2022
:100FD0000090A400CEE71FFA88F8B8F1800F14DB68
:100FE0000021404680B201F095F980461FFA88F84A
:100FF000B8F1000F07D01FFA88F8DFF8D00618EB19
:10100000000010F8808C5BF0020B1FFA88F8B8F132
:10101000000F08D01FFA88F84146DFF8B406FFF742
:10102000DEF8002804D05F2080465BF0030B1AE056
:101030001FFA88F8B8F1410F07DB1FFA88F8B8F1FA
:101040005B0F02DA54F002040DE01FFA88F8B8F1E1
:10105000610F08DB1FFA88F8B8F17B0F03DA54F050
:101060000104B8F120080198806906F80080761C18
:1010700080E7019880690078E52803D101988069AC
:10108000052101700098082800D1A400E4B214F0F2
:101090000C000C2804D0E4B214F00300032801D1A2
:1010A0005BF0020B5FEA8B700DD4E4B214F0030026
:1010B000012801D15BF0100BE4B214F00C000428FD
:1010C00001D15BF0080B0198806980F80BB000201B
:1010D000BDE8FE8FF2B50400009800782F2803D0F9
:1010E000009800785C2802D10098401C00900020F5
:1010F000A06000980078202807D200212000FFF788
:101100001EFB05000020606131E000A92000FFF710
:101110008BFE0500EDB2002D29D12000FFF708FD60
:101120000500A069C07A0700EDB2002D07D0EDB22E
:10113000042D1CD1780701D40520050017E078079D
:1011400015D460690600F07AC00602D405200500B7
:101150000DE0707D317D51EA002080B2F17EB27EDB
:1011600052EA012189B251EA0040A060CDE728008F
:10117000C0B2F2BD38B504000D0001232A0014F1FD
:101180003401607801F060F8002801D003202DE0E0
:1011900094F8330294F8321251EA002080B24AF6F1
:1011A0005521884201D0022020E094F86C0094F888
:1011B0006B10090251EA004094F86A100843DFF806
:1011C0001415884201D1002010E094F8880094F8AA
:1011D0008710090251EA004094F886100843DFF8AE
:1011E000F414884201D1002000E0012032BD00004B
:1011F000BC9800082DE9F74F86B00698D0F800900B
:1012000099F800003038019001980A2809D299F81D
:1012100001003A2805D119F102090698C0F800909A
:1012200001E0002001900198002801D00B20FEE190
:101230000198DFF8A41451F820008246079908604D
:10124000BAF1000F01D10C20F1E15046FEF7D1FFB9
:10125000002801D10F20EAE19AF80000002815D0FB
:101260009AF8010000F0D7FF8DF800009DF800000B
:10127000C0070BD49DF82000002805D09DF8000081
:10128000400701D50A20D2E10020D0E100208AF8F1
:10129000000001988AF801009AF8010000F0A2FF0E
:1012A0008DF800009DF80000C00701D50320BEE1C5
:1012B0009DF82000002805D09DF80000400701D5CA
:1012C0000A20B4E100218B465046FFF753FF04008B
:1012D000E4B2012C23D100200600F6B2002E00D08B
:1012E000761EF6B21AEB061000F2F2100290029887
:1012F0000079002813D00298C07A0299897A0904EB
:1013000051EA00600299497A50EA01200299097A6B
:101310000843834659465046FFF72CFF0400E4B2C9
:10132000032C01D1012082E1E4B2002C01D00D2078
:101330007DE19AF840009AF83F1051EA002080B20F
:10134000B0F5007F01D00D2071E19AF84B009AF8BA
:101350004A1051EA002080B20700002F0ED19AF8FF
:101360005B009AF85A10090451EA00609AF8591083
:1013700050EA01209AF8581008430700CAF8207074
:101380009AF8440005008AF80300EDB2012D04D05C
:10139000EDB2022D01D00D2049E1EDB26F439AF874
:1013A000410005008AF80200EDB2002D04D0691E4C
:1013B0002800C0B2084201D00D2038E19AF846005A
:1013C0009AF8451051EA0020AAF80800BAF8080077
:1013D0001021B0FBF1F202FB1102002A01D00D2016
:1013E00025E19AF848009AF8471051EA002080B2A7
:1013F0000490049800280ED19AF857009AF85610D5
:10140000090451EA00609AF8551050EA01209AF850
:101410005410084304909AF843009AF8421051EA95
:101420000020ADF80200BDF80200002801D10D2017
:10143000FDE0BDF8020017FA80F0BAF8081010EBD2
:101440001110059004980599884201D20D20EEE014
:1014500004980599401A9AF80210B0FBF1F0039035
:101460000398002801D10D20E1E001200400039839
:1014700040F6F671884201D30220040003984FF62B
:10148000F671884201D3032004000398801CCAF837
:101490001C00059810EB0B00CAF82C00BDF80200E8
:1014A0001BFA80F0CAF82400E4B2032C1AD1BAF86F
:1014B0000800002801D00D20B9E09AF863009AF8DE
:1014C0006210090451EA00609AF8611050EA0120A4
:1014D0009AF860100843CAF82800DAF81C00800067
:1014E00080461CE0BAF80800002801D10D209EE0DB
:1014F000DAF824003818CAF82800E4B2022C04D123
:10150000DAF81C005FEA400809E0DAF81C00032161
:1015100048439AF81C1011F0010111EB5008DAF859
:10152000200008F2FF11B0EB512F01D20D207EE018
:101530005FF0FF30CAF814000020CAF81000E4B2CF
:10154000032C64D100208AF805009AF865009AF807
:10155000641051EA00201BFA80F0CAF81800012339
:10156000DAF818201AF134019AF8010000F06CFE44
:1015700000284CD19AF833029AF8321251EA00202E
:1015800080B24AF65521884241D19AF837009AF83C
:101590003610090451EA00609AF8351050EA01202B
:1015A0009AF8341008434D49884230D19AF81B020A
:1015B0009AF81A12090451EA00609AF8191250EACE
:1015C00001209AF818120843454988421FD19AF819
:1015D00023029AF82212090451EA00609AF82112B3
:1015E00050EA01209AF820120843CAF810009AF82D
:1015F0001F029AF81E12090451EA00609AF81D129F
:1016000050EA01209AF81C120843CAF814008AF81C
:10161000004034480088401C32490880AAF806007F
:101620000020CAF8300000208AF80400002009B029
:10163000BDE8F08F38B504000D00002C06D02078EE
:10164000002803D0E088ADB2A84201D009200EE006
:101650002000FEF7CEFD002801D10F2007E06078C2
:1016600000F0D9FDC00701D5032000E0002032BD05
:1016700070B504000D00E4B2002C01D00B2022E074
:10168000E4B2154850F824000600002E08D0F06897
:1016900000F06EFD002801D1022014E0002030701F
:1016A000002D0BD00020287015F10C012000C0B2D5
:1016B00000F04CFD002801D1022004E0E4B206480D
:1016C00040F82450002070BD789900086C950008FF
:1016D000C8990008464154009807002052526141C1
:1016E00072724161549A01202DE9F2478DB00400D5
:1016F00090460020206018F01F0818F0FE0200A994
:101700000DA8FFF777FD05004FF4007000F04CFDC9
:101710000700002F05D111210098FEF770FD112060
:10172000CEE0079709A80690EDB2002D04D10D99DF
:1017300000A8FFF7CFFC050005980600EDB2002DCC
:1017400003D1002E01D1062005001C2018EA000F4D
:1017500069D0EDB2002D0BD0EDB2042D03D100A85D
:10176000FFF76BFA050058F00808059806000BE033
:10177000F07A1121084202D00720050004E05FEA58
:10178000487001D508200500EDB2002D5CD15FEA5C
:10179000087059D500F0B4FD814686F80E90484691
:1017A00080B2000AF0735FEA194030745FEA196092
:1017B00070740020F07200203077002070770020D5
:1017C000B0770020F077707D317D51EA002080B243
:1017D000F17EB27E52EA012189B251EA004082468E
:1017E0000020B0760020F076002030750020707563
:1017F000009801210171BAF1000F25D00098006B0B
:10180000814651460098FEF7F3FE0500EDB2002D2B
:101810001AD10098BAF10101016149460098FEF71A
:1018200001FD050010E0EDB2002D0DD1F07AC006EB
:1018300002D50420050007E05FEA887004D5F07A3D
:10184000C00701D507200500EDB2002D08D15FEAE1
:10185000087001D558F020080098006BE0612662FE
:10186000380000F0A8FCEDB2002D22D184F80680EB
:10187000707D317D51EA002080B2F17EB27E52EA65
:10188000012189B251EA00402061F07FB17F090453
:1018900051EA0060717F50EA0120317F0843E06027
:1018A0000020A0600020A061009820600098C088FF
:1018B000A0802900C9B20098FEF7A1FC2800C0B2A0
:1018C0000EB0BDE8F0872DE9FA4F83B00400150093
:1018D000DDF80CB0049800210160A1882068FFF7B2
:1018E000A9FE8DF800009DF80000002807D09DF8A3
:1018F00000102068FEF783FC9DF800000CE1A07941
:10190000000605D502212068FEF779FC022003E1DC
:10191000A079C00705D407212068FEF770FC0720D6
:10192000FAE0E068A168401A01900198A84201D24B
:1019300001980500002D00F0EA80A0684FF40071C6
:10194000B0FBF1F202FB1102002A40F0B680A06861
:10195000400A21688978491E084082465FFA8AFA5F
:10196000BAF1000F24D1A068002802D12069060036
:1019700004E061692068FEF70AFD0600022E09D224
:10198000A07950F08000A07102212068FEF737FC9A
:101990000220C1E016F1010F09D1A07950F08000BA
:1019A000A07101212068FEF72AFC0120B4E06661E5
:1019B00061692068FEF7DEFC0700002F09D1A079DD
:1019C00050F08000A07102212068FEF718FC022070
:1019D000A2E057FA8AF7680A8146B9F1000F39D0B8
:1019E0002068807859FA8AF1884206D22068807887
:1019F0005FFA8AFAB0EB0A0081464B46DBB23A0046
:101A000059462068407800F01FFC002809D0A079D2
:101A100050F08000A07101212068FEF7F0FB01204A
:101A20007AE0A07940060FD5A069C01B48450BD2CB
:101A30004FF4007214F12401A069C01B4FF400732D
:101A400003FB00B0FEF7A0FB4FF4007000FB09F0B1
:101A500080464DE0A069B8422ED0A079400617D547
:101A60000123A26914F124012068407800F009FCE8
:101A7000002809D0A07950F08000A07101212068D1
:101A8000FEF7BDFB012047E0A07910F0BF00A07178
:101A900001233A0014F124012068407800F0D4FBBF
:101AA000002809D0A07950F08000A07101212068A1
:101AB000FEF7A5FB01202FE0A761A0684FF400719D
:101AC000B0FBF1F202FB1102D2F5007080464545F1
:101AD00000D2A8464246A0684FF40071B0FBF1F373
:101AE00003FB1103181910F124015846FEF74CFBB3
:101AF00018EB0B0BA06818EB0000A06004980068BE
:101B000018EB000004990860B5EB080512E7002106
:101B10002068FEF774FB002005B0BDE8F08F2DE9CA
:101B2000FB4F04001500DDF804A0029800210160BD
:101B3000A1882068FFF77EFD8DF800009DF8000069
:101B4000002807D09DF800102068FEF758FB9DF88C
:101B5000000028E1A079000605D502212068FEF7E3
:101B60004EFB02201FE1A079800705D407212068E1
:101B7000FEF745FB072016E1E0682818E168884277
:101B800001D200200500002D00F0FE80A0684FF477
:101B90000071B0FBF1F202FB1102002A40F0C68096
:101BA000A068400A21688978491E084083465FFA88
:101BB0008BFBBBF1000F2FD1A06800280AD1206950
:101BC0000600002E0BD100212068FEF74AFD06001A
:101BD000206104E061692068FEF743FD0600002EE5
:101BE00000F0D280012E09D1A07950F08000A071C0
:101BF00002212068FEF703FB0220D4E016F1010F5A
:101C000009D1A07950F08000A07101212068FEF771
:101C1000F6FA0120C7E06661A079400617D50123D6
:101C2000A26914F124012068407800F02AFB002802
:101C300009D0A07950F08000A07101212068FEF742
:101C4000DEFA0120AFE0A07910F0BF00A071616959
:101C50002068FEF78FFB0700002F09D1A07950F014
:101C60008000A07102212068FEF7C9FA02209AE0E4
:101C700057FA8BF7680A8146B9F1000F3AD020680D
:101C8000807859FA8BF1884206D2206880785FFA12
:101C90008BFBB0EB0B0081464B46DBB23A00514662
:101CA0002068407800F0EDFA002809D0A07950F0C3
:101CB0008000A07101212068FEF7A1FA012072E0E6
:101CC000A069C01B48450FD24FF40072A069C01B29
:101CD0004FF4007101FB00A114F12400FEF754FA47
:101CE000A07910F0BF00A0714FF4007000FB09F064
:101CF00080463AE0A069B84217D0A068E1688842FF
:101D000013D201233A0014F124012068407800F036
:101D10009BFA002809D0A07950F08000A071012121
:101D20002068FEF76CFA01203DE0A761A0684FF43F
:101D30000071B0FBF1F202FB1102D2F50070804697
:101D4000454500D2A84642465146A0684FF400736C
:101D5000B0FBF3FC0CFB130C1CEB04002430FEF76F
:101D600013FAA07950F04000A07118EB0A0AA0689D
:101D700018EB0000A0600298006818EB00000299C0
:101D80000860B5EB0805FEE6E068A168884201D26C
:101D9000A068E060A07950F02000A07100212068C8
:101DA000FEF72DFA0020BDE8FE8FF8B50400A188EB
:101DB0002068FFF73FFC0500EDB2002D58D1A07957
:101DC000800655D5A079400613D50123A26914F1E8
:101DD00024012068407800F054FA002805D0012141
:101DE0002068FEF70CFA012049E0A07910F0BF004E
:101DF000A071E1692068FEF715FA0500EDB2002D2B
:101E000036D1206A0700F87A50F02000F872E068B6
:101E10003877E06880B2000A7877E068000CB8771D
:101E2000E068000EF8772069B876206980B2000A71
:101E3000F8762069000C38752069000C80B2000A21
:101E4000787500F05DFA0600BE75300080B2000AB9
:101E5000F875300C3876300E7876A07910F0DF0007
:101E6000A0712068012101712068FEF717FA0500B2
:101E70002900C9B22068FEF7C2F92800C0B2F2BD3D
:101E800038B504002000FFF790FF0500EDB2002DEB
:101E900001D1002020602800C0B232BD2DE9F047FA
:101EA00004000D00A1882068FFF7C4FB0600F6B20D
:101EB000002E07D03100C9B22068FEF7A0F930002B
:101EC000C0B200E1A079000605D502212068FEF726
:101ED00096F90220F7E0E068A84204D2A0798007D2
:101EE00001D4E0680500A068824600208146A06019
:101EF000002D00F09A80206880784FF400714843EC
:101F00008046BAF1000F13D0BAF10100B0FBF8F02F
:101F1000691EB1FBF8F181420AD3BAF10100B8F1B0
:101F200001018843A060A0682D1A6069070023E0C2
:101F300020690700002F1ED100212068FEF791FBC9
:101F40000700012F09D1A07950F08000A071022173
:101F50002068FEF754F90220B5E017F1010F09D10E
:101F6000A07950F08000A07101212068FEF747F9A8
:101F70000120A8E027616761002F56D0A84535D21F
:101F8000A079800708D539002068FEF76AFB0700B2
:101F9000002F06D1454629E039002068FEF7F7F901
:101FA000070017F1010F09D1A07950F08000A0714E
:101FB00001212068FEF723F9012084E0022F03D3DA
:101FC0002068C069874209D3A07950F08000A071D1
:101FD00002212068FEF713F9022074E06761A0680F
:101FE00018EB0000A060B5EB0805C7E7A06828184B
:101FF000A0604FF40070B5FBF0F101FB1051002917
:1020000013D039002068FEF7B5F98146B9F1000F09
:1020100009D1A07950F08000A07102212068FEF75C
:10202000EEF802204FE019EB5529A0684FF400713B
:10203000B0FBF1F202FB1102002A33D0A069814506
:1020400030D0A079400617D50123A26914F12401EC
:102050002068407800F015F9002809D0A07950F0E8
:102060008000A07101212068FEF7C9F801202AE054
:10207000A07910F0BF00A07101234A4614F1240199
:102080002068407800F0E0F8002809D0A07950F0EE
:102090008000A07101212068FEF7B1F8012012E054
:1020A000C4F81890E068A168884205D2A068E06092
:1020B000A07950F02000A0713100C9B22068FEF76D
:1020C0009EF83000C0B2BDE8F0872DE9F04383B040
:1020D00004000D0016000027A146681E874215DA8D
:1020E00000AB012201A93000FFF7EDFB00980128A9
:1020F0000CD19DF80400804689F8008019F101098F
:102100007F1C5FFA88F8B8F10A0FE6D1002089F841
:102110000000002F00D100242000BDE8FE8310B491
:1021200050F8041B81B102681218001D50F8043BDE
:10213000DC0744BFA9F10104E31852F8044B43F84B
:10214000044B091FF9D1EBE710BC704738B5040008
:102150000D00E4B20C20054900FB041028600121A9
:10216000286800F032F9012032BD00008C07002001
:1021700010B504000021200000F034F9012010BD4A
:1021800010B504004FF47A71200000F067F90028C0
:1021900001D1012000E00020C0B210BD10B5040044
:1021A000200000F0A1F910BD10B5040021000020AE
:1021B00000F008FA10BD10B50400200000F052FA3B
:1021C00010BD50F8041B61B150F8042BD30744BF75
:1021D000A9F101039A18002342F8043B091FFAD120
:1021E000EFE7704738B50400E4B2002C11D10020AD
:1021F000050046480079052801D055F001054348FF
:1022000000F08FFA002801D055F004052800C0B274
:1022100000E0022032BD38B50400E4B2002C11D138
:102220000020050039480079052801D055F0010546
:10223000364800F076FA002801D055F00405280051
:10224000C0B200E0022032BDF8B504000D00160057
:102250001F00E4B2002C12D12C480079052801D0CF
:1022600003200DE0FFB23B002A003100274800F0B8
:10227000E8FB002801D0012002E0002000E004205B
:10228000F2BDF8B504000D0016001F00E4B2002CEA
:1022900012D11E480079052801D003200DE0FFB2BD
:1022A0003B002A003100194800F0FDFB002801D056
:1022B000012002E0002000E00420F2BD0300DBB2B8
:1022C000002B1BD1C9B2002905D002290AD004D3A2
:1022D00003290CD010E0002011E00C48806A106047
:1022E00000200CE04FF400701080002007E04FF455
:1022F00080701060002002E0042000E0042070479D
:1023000080B5034800F065FC02BD0000DC980120A8
:10231000D8980120020092B2802A01DA10001EE053
:1023200000290CD092B2FF2A01DD002006E092B213
:10233000194810EB4200B0F5807000880FE00023D0
:10234000180080B2802808DA80B2134B33F81030BE
:1023500092B29A4201D0401CF3E78030C0B280B202
:102360007047002211000D4A32F81120002A07D0D0
:102370000A4A32F8112080B2904201D0491CF2E79B
:10238000064A32F81120002A03D0054830F811001F
:10239000FFE780B270470000B0920008F08E00089E
:1023A000D090000801604A6842604860426810604E
:1023B00070470100086802680A60516070470100B8
:1023C000486842684A6011607047002803D00029BD
:1023D00001D4012200E00022D2B26D4A40600060C8
:1023E0008160704738B504000D00202080F311880B
:1023F0002900200000F006F800F0AEFC002080F379
:10240000118831BD70B504000D00002C03D0002DE3
:1024100001D4012000E00020C0B25E48A06800287E
:1024200002D42068A04205D0A068002804D5206806
:10243000A04201D0012000E00020C0B2A068060048
:10244000A560761C012E08DA2000FFF7B8FF00F027
:10245000EEFB7FF001014162F3E770BD70B504004F
:102460000D00202080F311882900200000F006F8DC
:102470000600002080F31188300070BD38B50400DC
:102480000D00002C01D0012000E00020C0B2434824
:10249000A068002802D42068A04205D0A0680028C7
:1024A00004D52068A04201D0012000E00020C0B285
:1024B000A068401EA060002814D5002D05D1A0689A
:1024C000401CA0605FF0FF300DE03348806944623B
:1024D000210031488069FFF765FF2900032000F0E3
:1024E000FDFB00E0002032BD10B50400002C01D03F
:1024F000012000E00020C0B22948A068002802D4D2
:102500002068A04205D0A068002804D52068A04219
:1025100001D0012000E00020C0B2202080F311880B
:10252000A068401CA060012805DA2000FFF741FFE9
:10253000002100F0F5FB002080F3118810BD38B5B4
:102540000400002C01D0012000E00020C0B215489A
:10255000A068002802D42068A04205D0A068002806
:1025600004D52068A04201D0012000E00020C0B2C4
:10257000A068401CA060012808DA2000FFF719FFBE
:10258000050000206862280000F051FB31BD00000A
:102590005C9800086C98000818070020289700082D
:1025A0007C9800089897000880B556485649016005
:1025B00054480021816053480021C160534800F015
:1025C0003FFC01BD2DE9F04104008846002C01D1FB
:1025D0004C48040018F107005FEAD0085FEAC80819
:1025E00014F10800050014F1100000F035FC286813
:1025F000002822D028680600706840451BD3706808
:1026000018F10801884202D2306828600DE018EB0A
:102610000600083007003068386070680838B0EB92
:10262000080078602F60C6F80480346000F06EFC0B
:1026300016F1080014E03500D9E700F067FC2068C7
:1026400000280CD018F10800216888470600002EE9
:1026500005D03460C6F804800836300000E0002061
:10266000BDE8F081F8B50400002C01D0012000E0A5
:102670000020C0B22648B4F1080006003068070008
:1026800017F10800050017F1100000F0E5FBAE425D
:1026900004D3686840190830864201D3012000E065
:1026A0000020C0B217F10800854201D0B54226D201
:1026B0002868002802D02868864220D22868306026
:1026C0002E607068801908303168884208D17068BF
:1026D00031684968083108187060306800683060F7
:1026E000686840190830B04206D1686871680831DE
:1026F000081868603068286000F008FC01E02D6868
:10270000C5E7F1BD100400208F430008200400201D
:102710002C98000880B500F0B5FC01BD0100012037
:102720007047010000207047704703681AB95A1EAD
:10273000026008467047197811B94FF0FF307047B2
:10274000591C01601878704710B582B0040000ABC6
:10275000A26B0D21200000F00EFF002804D100988C
:10276000DFF80414084201D0012018E00098400A64
:1027700010F00F00001F03D0401E022802D90DE008
:1027800000200CE0DFF8E40340210180012001F08B
:10279000BCF8DFF8DC0340210180D8E7012016BD3A
:1027A00080B500F027FE01BDDFF8C81301600121EC
:1027B0000171002141630021C162002181627047E3
:1027C00038B504000D00002C01D0012000E00020ED
:1027D000C0B2DFF8A403202080F3118820790128FB
:1027E00002D02079022801D1012000E00020C0B2EF
:1027F000E562200000F00DFE02202071002080F331
:10280000118831BD70B582B00400002C01D00120C8
:1028100000E00020C0B2DFF864032079022802D073
:102820002079052801D1012000E00020C0B203205A
:102830002071200000F02BFE00220021200000F07B
:1028400063FE00AB4FF4D5720821200000F093FE28
:10285000002815D1012020630098C0F3032001282F
:1028600040F0B28000AB00223721200000F083FE50
:10287000002804D10098DFF8F012084207D0A3E046
:102880000020206300220021200000F03DFE94F88B
:10289000300010F00F00012803D1DFF8E402060039
:1028A00002E0DFF8E00206000020050000AB002295
:1028B0003721200000F05FFE002804D10098DFF8E7
:1028C000A812084200D07FE000AB3200292120008E
:1028D00000F02BFE002877D10098002810D5009832
:1028E000400003D5206B50F01000206314F1080362
:1028F00000220221200000F064FE002807D107E03A
:102900006D1C642D60D20A2000F0FFFFCEE75BE073
:1029100014F1380300220321200000F02CFE0028CF
:1029200052D114F11803A26B0921200000F049FED6
:10293000002849D1200000F0BFFD00ABA26B0721A9
:10294000200000F018FE00283ED100AB4FF40072CA
:102950001021200000F00FFE002803D100988249CA
:10296000084200D030E094F8300010F00F0000284A
:1029700001281DD80121200000F0ACFD00ABA26BA6
:102980003721200000F0F7FD002803D10098764998
:10299000084200D018E000AB02220621200000F01F
:1029A000EAFD002803D100986F49084200D00BE0EF
:1029B00014F1180001F024F8A062A06A002803D0E6
:1029C00005202071002005E0200000F07CFD0220A1
:1029D0002071012076BD10B50400002C01D001202B
:1029E00000E00020C0B26848202080F311882079E0
:1029F000022802D02079052801D1012000E0002022
:102A0000C0B22079022804D1002080F31188002070
:102A100016E004202071002080F311882000FFF7C9
:102A200093FE002806D0200000F04DFD022020710A
:102A3000012005E0200000F046FD0220207100206A
:102A400010BD2DE9F04104000D0016001F00002C00
:102A500005D0002E03D0002F01D0012000E000207F
:102A6000C0B24A482079052801D1012000E00020A9
:102A7000C0B2A06A7919491E884205D2606B50F035
:102A80008000606301200CE0062020713B003200D2
:102A90002900200000F0A8FE804605202071404655
:102AA000C0B2BDE8F0812DE9F04104000D00160030
:102AB0001F00002C05D0002E03D0002F01D00120D4
:102AC00000E00020C0B232482079052801D1012061
:102AD00000E00020C0B2A06A7919491E884205D2E0
:102AE000606B50F08000606301200CE007202071D3
:102AF0003B0032002900200000F082FE80460520C5
:102B000020714046C0B2BDE8F08138B50400002C09
:102B100001D0012000E00020C0B21E482079052825
:102B200001D0012009E008202071200000F074FE8F
:102B30000500052020712800C0B232BD0200002A25
:102B400003D0002901D0012000E00020C0B21248CB
:102B50001079052801D0012005E0906A48604FF403
:102B6000007008600020704708E0FFFD1800024078
:102B70001A000240C09600081C9900082C99000811
:102B8000000010C000001080E8970008A899000815
:102B90003C990008B49900084C99000880B500F0F1
:102BA0005DFF01BD38B504000D00002C03D0002DE1
:102BB00001D0012000E00020C0B20E48202080F3A8
:102BC00011882900200000F07EFF002080F311888A
:102BD00031BD10B50400002C01D0012000E0002020
:102BE000C0B20348200000F097FF10BD00000000B5
:102BF000FC9800080C9900080100086802680A6047
:102C000051607047416802680A60016842684A6022
:102C100070477A48794948607849086077480021C8
:102C20008160764875494861744908617047027F40
:102C3000002A04D0027F0E2A01D0012200E00022E7
:102C4000D2B2002202776D4A110009688A6883684F
:102C50009A42FAD201604A68426048604268106055
:102C6000704738B504006548806905000477142072
:102C7000E8776248FFF7C0FF604988615F48806974
:102C80000121017729005D48806900F09FFF31BD77
:102C900038B504002500202080F31188287F002803
:102CA00006D0032808D005280BD00D2809D00BE04A
:102CB000002080F3118810E0686A8068401C696A0F
:102CC00088602800FFF79EFF5FF0FF3068622800F1
:102CD000FFF7ADFF002080F3118831BD30B585B01E
:102CE00004000D0015F1010F11D044488369444AD6
:102CF000290000A800F089FF2000C0B2FFF7B1FF53
:102D00000398002807D000A800F0A7FF03E02000E8
:102D1000C0B2FFF7A6FF39488069406A05B030BDF0
:102D200070B504000D006562344880698068A16850
:102D3000884203D32000FFF77AFF0CE02F48806918
:102D4000FFF775FF06002D488461012020773100D0
:102D5000200000F03BFF70BD80B528488069806886
:102D6000264909688968884201D200F019F801BD36
:102D700010B52248806904002048FFF73DFF1F4935
:102D800088611E488069012101771420E0772000C6
:102D9000FFF74DFF21001948806900F017FF10BDB3
:102DA00038B51648806904001448FFF725FF134919
:102DB00088611248806901210177002020770F483F
:102DC00005002D68A068A9688842FAD32560686864
:102DD00060606C606068046021000848806900F0F1
:102DE000F5FE31BD80B505488069C07F002802D15D
:102DF000FFF7BEFF01E0FFF7D3FF01BD180700207A
:102E0000912C000810B40A0012688A4203D093681B
:102E10008468A342F8D202605368436050604368FC
:102E2000186010BC70470100086802680A605160B1
:102E30007047416802680A60016842684A607047EA
:102E4000002801D0012100E00021C9B252494060B0
:102E5000006000218160704710B50400202080F3DD
:102E60001188200000F004F8002080F3118810BDC4
:102E700070B5040049488569002C01D0012000E0AC
:102E80000020C0B24648A06800283AD0A668B068C2
:102E9000A96888421ED2A868B060307F002814D08C
:102EA000042802D0052809D014E03000FFF7C1FF44
:102EB000716AFFF7A7FF706A8668E8E73000FFF7DE
:102EC000B8FF716AFFF79EFF04E03000FFF7B1FF23
:102ED000FFF7ADFE21002800FFF794FF6C6204208D
:102EE000FFF7BFFEA068A84201D1012000E000204A
:102EF000C0B2E86BA04201D1012000E00020C0B2C6
:102F000003E0A560E86BE060EC6370BD2DE9F04183
:102F100022488469202080F31188E06B002801D0CA
:102F2000012000E00020C0B2E06B8068A04201D127
:102F3000012000E00020C0B2E06B0500E868E0631B
:102F40002868A84220D0D4F84080E06B0600002E0C
:102F50000BD03068B04206D030688068804502D21D
:102F6000306880688046F668F1E7C4F80880280079
:102F7000FFF759FF0700AF60F86BE860FD630021C1
:102F80003800FFF7CDFE01E00020A860002080F3AC
:102F900011882800BDE8F0813C980008180700203F
:102FA0004C9800086A48006850F4807068490860CE
:102FB0006848006810F44070B0F5407F06D065485E
:102FC0005FF480310160634800210160614800685E
:102FD00000040BD45F48006850F440705D490860FD
:102FE0005C48006850F400405A4908605A4800683C
:102FF00030F4007058490860704770B5574804684D
:1030000056485FF0FF310160544800210160544888
:10301000056853485FF0FF310160514800210160AD
:103020005048006870F080504E4908604D480021BB
:1030300001604D4806684C485FF0FF3101604A4826
:103040000021016049484A4901604A480021016065
:103050004948072101604948006850F0807047499D
:1030600008604748006850F001004549086045483D
:10307000006850F0805043490860FFF793FF00F06C
:103080009CFF70BD3F485FF08051016030484FF4B5
:10309000404101603C48006850F001003A49086036
:1030A000394800688007FBD53848006880088000F0
:1030B0003649086035483549096801603348006879
:1030C00010F00C0FFAD13048006810F0F9002E49CA
:1030D00008602E48002101602B48006850F48030C1
:1030E00029490860284800688003FBD528482949F9
:1030F00001602548006850F0807023490860164838
:1031000000684004FBD5204800688001FBD51F48BB
:1031100021490160214840F2057101601B480068A7
:1031200050F00200194908601848006810F00C00BF
:103130000828F9D11A48006850F4804018490860FE
:103140001848006850F48040164908607047000035
:103150000070004070380240047000401038024097
:1031600014380240203802402438024014E000E0C5
:103170003F90020018E000E010E000E0FCED00E00D
:10318000001000E040380240003802400838024099
:10319000043802400854400700944838003C02407C
:1031A0004438024064380240F8B504000F001500AE
:1031B0001E0094F83000C00602D44FF4007047435C
:1031C000022D0ED333003A001221200000F0D3F973
:1031D000002804D13068DFF8AC15084210D0012077
:1031E0000FE033003A001121200000F0C4F900285C
:1031F00004D13068DFF88C15084201D0012000E0CE
:103200000020F2BDF8B504000F0015001E0094F870
:103210003000C00602D44FF400704743022D0ED395
:1032200033003A001921200000F0A5F9002804D14C
:103230003068DFF85015084210D001200FE033004D
:103240003A001821200000F096F9002804D13068D7
:10325000DFF83015084201D0012000E00020F2BD67
:1032600070B504000D001600202080F31188DFF8EF
:1032700018050068002814D0E06B002801D1012057
:1032800000E00020C0B2DFF804058069E06302209E
:10329000FFF7E7FCE06B002801D1012000E00020EF
:1032A000C0B2DFF8EC040068C00504D4002080F34D
:1032B0001188012022E0606C00680068C007FAD421
:1032C0003D20616C91F908108840616C4968086084
:1032D000DFF8C004DFF8C0140160DFF8C00400218B
:1032E0000160002080F31188022D06D333000022F4
:1032F0000C21200000F03FF900E0002070BD00220A
:10330000CB0701D552F001028B0701D552F0020222
:103310004B0701D552F008020B0701D552F0040209
:10332000CB0601D552F010028B0601D552F02002D7
:103330008B0501D552F04002436B13434363704742
:10334000F8B504000D001600DFF8440407683D20BE
:10335000616C91F908108840616C49680860606C84
:103360000068006840094001616C09680860606C91
:1033700000680068C007FAD43D20616C91F908101C
:103380008840616C49680860DFF80804DFF80814B9
:103390000160DFF8F40300210160DFF80004002180
:1033A000016039002000FFF7AAFF022D05D333008A
:1033B00000220C21200000F0DEF8F1BD80B52020B5
:1033C00080F31188DFF8C00300210160DFF8D0032B
:1033D000C06B002808D0DFF8C803C06BFFF727FCDC
:1033E000DFF8BC030021C163002080F3118800F0E6
:1033F000A7FE01BD80B5DFF8A803FFF7D5F9DFF818
:10340000A0030021C163DFF89803DFF8981341643B
:1034100001BD38B50400DFF890032064206C40F44F
:10342000200050F020002064207901281ED10023C4
:1034300000220921606C00F0E5FD050095F0010017
:10344000C0B2606C0068DFF864138160606C006873
:10345000072141619021312000F0BAFEDFF85003CE
:10346000006850F40060DFF848130860DFF8440398
:1034700000210160DFF8400300210160DFF81C0338
:1034800000210160DFF834030021016031BD10B577
:103490000400C94878210160C648006850F0030064
:1034A000C4490860C448006850F48070C24908608C
:1034B0000A2000F02AFA10BDBF490968090A09026A
:1034C000BD4A11607047BC4900220A60B949002218
:1034D0000A60704710B4B84A126832F4C052C9B2D8
:1034E000002903D0022909D003D30BE0B24B1A60A4
:1034F00008E052F40063B04C236003E052F48053C0
:10350000AD4C236010BC704710B4AD4B1A60C9B20B
:1035100051F48063AB4C23609D4B1B681B06FBD5AD
:103520009C4B80241C6010BC70472DE9F0410400C6
:103530000D0016001F00A2480660EDB255F4886029
:10354000A049086092480068804610F0450FF9D005
:1035500018F045008F4908605FEA487005D541467C
:103560002000FFF7CCFE012003E097480068386098
:103570000020BDE8F0812DE9F04104000D001600A7
:103580001F008F480660EDB255F488608D490860D1
:103590007F480068804610F0450FF9D018F04500CC
:1035A0007C49086018F0050F05D041462000FFF760
:1035B000A6FE012003E08448006838600020BDE8D2
:1035C000F0812DE9F04104000D0016001F007C4839
:1035D0000660EDB255F498607A4908606C4800685E
:1035E000804610F0450FF9D018F045006949086091
:1035F00018F03F0F05D041462000FFF780FE012064
:103600000FE07248006838603F1D714800683860FC
:103610003F1D7048006838603F1D6B480068386087
:103620000020BDE8F081F8B504000D0016001F0071
:10363000B7F5004F01D2012000E00020C0B266487B
:103640005E48664901602000FFF77EF8002801D03F
:1036500001203DE0606C0068C660606C00684FF45B
:10366000007101FB07F189084160606C0068216C02
:103670000160606C0068006850F00100616C0968CE
:1036800008604448444901603F4840F22A310160E3
:103690004FF4007000FB07F0514908603F489B2140
:1036A000016000AB3A0029002000FFF77DFD0028F3
:1036B00008D100AA39002000FFF7D2FD002801D16F
:1036C000002005E000AA39002000FFF739FE0120A4
:1036D000F2BDF8B504000D0016001F00B7F5004F4D
:1036E00001D2012000E00020C0B23B4833483D49F0
:1036F00001602000FFF728F8002801D001203FE0FA
:10370000606C0068C660606C00684FF4007101FB7B
:1037100007F189084160206C50F04000616C096835
:103720000860606C0068006850F00100616C096816
:103730000860184818490160134840F21A310160C6
:103740004FF4007000FB07F02549086000AB3A0019
:1037500029002000FFF756FD00280BD10F489921C2
:10376000016000AA39002000FFF77AFD002801D18E
:10377000002005E000AA39002000FFF7E1FD01204C
:10378000F2BD000008E0FFFD3C2C014018070020BE
:10379000342C0140382C0140FF07C0002C2C014084
:1037A000DC9801203095000800540308802C01406B
:1037B00044380240002C0140042C0140242C0140DC
:1037C000082C01400C2C0140142C0140202C0140FD
:1037D0001C2C0140182C0140AC6C0008C0270900CB
:1037E000282C0140808D5B00F8B504000D00160008
:1037F0001F003B00320029002000FFF714FFF2BD3C
:10380000F8B504000D0016001F003B00320029002F
:103810002000FFF75EFFF2BD010000207047026844
:10382000531C0360117070470100086802680A6049
:103830007047816002220277002242771422C27709
:1038400001640022C263002282630022026201221C
:103850008277002282614B4A02614A4A5269426180
:10386000484A50614269106110F12802826210F1E9
:103870002C020263C26270472DE9F84304000D0078
:1038800016001F00DDF82080A146002C08D0B02DC6
:1038900006D3802E04D23800002801D0012000E099
:1038A0000020C0B2384828192438C9F80C00D9F8CB
:1038B0000C000760D9F80C00C0F80480D9F80C009F
:1038C0003249016231004846FFF7B3FFBDE8F28399
:1038D0002DE9F84304000D0016001F00DDF82080DC
:1038E000202080F31188CDF800803B0032002900B1
:1038F0002000FFF7C1FF81460021FFF711FA0020E9
:1039000080F311884846BDE8F28310B50400002C0E
:1039100001D0012000E00020C0B21D48202080F32B
:10392000118821000620FFF7D9F9002080F31188C3
:1039300010BD10B50400202080F31188200000F095
:1039400001F810BD38B504000E4885696C62A86A9C
:1039500015F12801884206D015F12800FFF764FF11
:10396000FFF765F9F3E7687F0321084205D168692D
:10397000296901612869696941610E20FFF771F9C0
:1039800031BD000018070020AC970008DD3B00089F
:103990008C980008F0B5914204D38F1A202F01D2E1
:1039A000012700E00027FFB2144F57093C002027F1
:1039B000B2FBF7FC0CFB172C65464F093B000127B7
:1039C0005FF0200CB1FBFCFE0EFB1C1E1EF1010C77
:1039D00017FA0CF77F1E3E009C420AD250F8244092
:1039E000EC4050F823003040D5F1200398402043AC
:1039F00003E050F824003040E840F0BDD4970008C0
:103A0000F8B50500E868800F002802D0012819D019
:103A100022E03E2249212800FFF7BCFF07002F22A9
:103A200031212800FFF7B6FF06005022532128005D
:103A3000FFF7B0FF0400781CB11C8840B4F1090105
:103A400088400AE0302245212800FFF7A3FF401CF0
:103A50004FF48061484300E00020F2BD2A482B4922
:103A600001607F2028490968CA224A6226490968FC
:103A700053224A6226490968C90623D422490968A3
:103A8000C96851F08001204A1268D1601E49096856
:103A9000C9684906FAD51F49421CB1FBF2F1491E1B
:103AA0004904490C51EA0040174909680861164960
:103AB0000968086114490968C96831F08001124A2F
:103AC0001268D160704710B40F4A1268D26892062B
:103AD000FAD50D4A126812695204520C0A4B1B683F
:103AE0009B6AD31A4FF47A746343521CB3FBF2F20D
:103AF000CA60054A126812684A60034A126852682E
:103B00000A6010BC70470000D898012000280040CF
:103B10000C28004040420F002DE9FF410400202006
:103B200080F3118800A92000FFF7CDFF002080F36B
:103B30001188019806000098070016F00F008046D3
:103B4000C6F302100A2101FB00885FEA5800050055
:103B5000C6F303208046C6F302300A2101FB008829
:103B600055EA4815C6F303408046C6F301500A21C2
:103B700001FB0088C6F380500C2101FB008855EA48
:103B8000C82517F00F008046C7F301100A2101FB7A
:103B9000008855EA0845C7F303208046C7F3003084
:103BA0000A2101FB008855EA4855C7F303408046C7
:103BB000C7F303500A2101FB008818F1140855EAE5
:103BC0004865280004B0BDE8F081FEE72DE9F04F1C
:103BD000C1F80CD0D0F80CD0BDE8F08F002383F3EF
:103BE00011882846A047FFF7A4FEFFF7FBF800DF87
:103BF0002A482A4948602949086028485FF0FF316F
:103C0000816026480021C160704730B4002806D08A
:103C10001500002D03D0002901D0012500E000256A
:103C2000EDB21F4D0361C2601C4D2D682C00A568CC
:103C30008D4203D2A568491B2468F8E704606568D3
:103C400045606060456828608160144DAC4202D0D8
:103C5000A5686D1AA56030BC7047002801D001210D
:103C600000E00021C9B20F49C168002901D001213B
:103C700000E00021C9B20168084A914205D00168FC
:103C800089688268511802689160416802680A6018
:103C9000016842684A600021C16070477C070020CB
:103CA0009C980008AC98000810B5DFF80C04006878
:103CB00010F03D000400DFF804040460DFF80004A5
:103CC0000068002807D02100DFF8F4034068DFF81F
:103CD000F0231268904700F033FA10BD10B5DFF8FA
:103CE000D8030068800910F03D000400A001DFF84F
:103CF000CC130860DFF8C8038068002807D02100D3
:103D0000DFF8BC03C068DFF8B8239268904700F082
:103D100017FA10BD10B5DFF8A0030068000C10F012
:103D20003D0004002004DFF894130860DFF89003DE
:103D30000069002807D02100DFF884034069DFF81C
:103D400080231269904700F0FBF910BD10B5DFF831
:103D500068030068800D10F03D000400A005DFF846
:103D60005C130860DFF858038069002807D0210041
:103D7000DFF84C03C069DFF848239269904700F0F0
:103D8000DFF910BD10B5DFF83C03006810F03D000E
:103D90000400DFF834030460DFF82403006A00281D
:103DA00007D02100DFF81803406ADFF81423126AF5
:103DB000904700F0C5F910BD10B5DFF808030068A2
:103DC000800910F03D000400A001DFF8FC1208603B
:103DD000DFF8EC02806A002807D02100DFF8E0025B
:103DE000C06ADFF8DC22926A904700F0A9F910BDA2
:103DF00010B5DFF8D0020068000C10F03D000400A0
:103E00002004DFF8C4120860DFF8B402006B002859
:103E100005D02100AA48406BA94A126B904700F0D8
:103E20008FF910BD10B5A7480068800D10F03D0057
:103E30000400A005A4490860A148806B002805D0B3
:103E400021009F48C06B9E4A926B904700F078F922
:103E500010BD10B59D48006810F03D0004009C485E
:103E600004609748006C002805D021009448406CFD
:103E7000934A126C904700F063F910BD10B5934857
:103E80000068800910F03D000400A001904908601E
:103E90008B48806C002805D021008948C06C884A76
:103EA000926C904700F04CF910BD10B5874800683F
:103EB000000C10F03D000400200485490860804893
:103EC000006D002805D021007D48406D7C4A126DB0
:103ED000904700F035F910BD10B57C480068800DA2
:103EE00010F03D000400A005794908607448806D19
:103EF000002805D021007248C06D714A926D90472C
:103F000000F01EF910BD10B57248006810F03D00B9
:103F10000400714804606A48006E002805D0210042
:103F20006748406E664A126E904700F009F910BD6E
:103F300010B568480068800910F03D000400A00139
:103F4000654908605E48806E002805D021005C4805
:103F5000C06E5B4A926E904700F0F2F810BD10B54B
:103F60005C480068000C10F03D00040020045A4931
:103F700008605348006F002805D021005048406F6A
:103F80004F4A126F904700F0DBF810BD10B5514852
:103F90000068800D10F03D000400A0054E49086047
:103FA0004748806F002805D021004548C06F444A2B
:103FB000926F904700F0C4F810BD484900220A6093
:103FC0000021080010280CDA0C21454A01FB0021D1
:103FD000096800220A603A49002241F83020401C5A
:103FE000F0E736495FF0FF320A6037495FF0FF3291
:103FF0000A6037495FF0FF320A6037495FF0FF32ED
:104000000A607047F8B504000D0016001F00002C70
:1040100001D0012000E00020C0B232482F480068E3
:10402000617AC840C00701D5012044E0607A244984
:1040300041F83060607A224911EBC00047602748A0
:104040000068012194F90920914008432349086040
:1040500022480078000605D02348006850F400107C
:10406000214908601D48006810F47F4F05D01E48A4
:10407000006850F480001C4908602068006840090E
:1040800040012168086020680068C007FBD43D201B
:1040900094F9081088406168086020680021016078
:1040A0002068212141613000002803D02901A07A35
:1040B00000F08EF80020F2BD00600240086002406F
:1040C00028990120046002400C6002400064024014
:1040D00008640240046402400C64024024990120F8
:1040E000AC940008589700083038024080B5202072
:1040F00080F3118800F0F3F8002080F3118800F0BD
:104100001FF801BDEFF309810800203080F3098812
:10411000002181F31188704780B526480021016095
:104120002548264901601021072000F08EF8202143
:104130000A2000F08AF880210B2000F086F801BDEB
:10414000202080F311881E48006800052ED5EFF36B
:104150000981080020385FF08071C16180F309880F
:1041600018498969C97F00290CD01649896989686D
:10417000144A12689268914201D2012100E00021A4
:10418000C9B20BE00F49096889680E4A92699268C2
:10419000914201D3012100E00021C9B2002902D0DF
:1041A0000949816101E00949816102E0002080F351
:1041B0001188704708ED00E00CED00E00003FA05FF
:1041C00004ED00E018070020EB3B0008EF3B00087F
:1041D00070B410F00302D2008308264C54F8233048
:1041E000FF249440A34311FA02F423438408214D91
:1041F00045F824304309204C012510F01F06B54036
:1042000044F8235043091D4C012510F01F06B5400A
:1042100044F8235070BC704730B410F00301C9005B
:104220004209174B012410F01F05AC4043F822400F
:104230008208104B53F82220FF238B409A438308B7
:104240000C4C44F8232030BC704730B410F003020B
:10425000D20083080B4C54F82330FF249440A3432E
:1042600011FA02F423438408064D45F8243030BC8B
:104270007047000000E400E080E200E000E100E0C0
:1042800080E100E018ED00E034498969344A8A6130
:10429000FEE780B5FFF740FFFEF7BBFCFFF7A8FC89
:1042A00000F06AF8FEF780F940212E48FFF7C1FAC6
:1042B0002A4988612948806901210177002080F31B
:1042C000118862B6254880692749816100200090E5
:1042D000264B0122C0212648FFF7FAFA01BD38B566
:1042E0001E488069C07F002806D01C488069C07FB6
:1042F000401E1A498969C87718488069006A401CBD
:104300001649896908621B48C068401C1949C86081
:1043100018481849096888421FD016480068806804
:10432000401E1449096888601248006804008068CB
:10433000002812D1E06805000020E06020680D49E7
:1043400041600C4821680160002080F311882069D9
:10435000A847202080F31188E6E731BD1807002028
:10436000C09900083407002010970008894200080F
:10437000300400207C0700201748C008C0001749FF
:10438000086017481749C908C9000160704738B567
:104390000400202080F31188200000F006F80500BA
:1043A000002080F31188280032BD0200D01DC20811
:1043B000D2000B480068094B1B68C01A904201D21A
:1043C000002008E005480068010004480068101853
:1043D000024B1860080070476F9A012010070020F8
:1043E0001407002000FC01202DE9F04FA1B0824607
:1043F00002AE002017461D46029170620DF144087E
:104400000AE017F8011B0298D0470290002800F03C
:104410008B82706A401C7062387808B9706A85E2D5
:104420002528EED10020F06030617061B061F0614C
:10443000306201E040F0010017F8011F2029F9D097
:1044400023290DD02B2904D02D2906D030290AD0BC
:104450000CE040F0020080B2EEE740F00400FAE722
:1044600040F00800F7E740F01000F4E72A290DD1EA
:1044700029680A1D2A600968F162002904D54942A9
:1044800040F00400F16280B27F1C13E00021F16271
:104490000BE0F16A6FF00043994205D001EB810314
:1044A00002EB43013039F1627F1C3A78A2F130010E
:1044B0000A29EED339782E2903D04FF0FF31B162AB
:1044C0001EE017F8011F2A2906D129680A1D2A6053
:1044D0007F1C0968B16213E00021B1620BE0B16A90
:1044E0006FF00043994205D001EB810302EB4301D9
:1044F0003039B1627F1C3A78A2F130010A29EED33B
:1045000030860FF6C030397800F0EAFD08B117F8B0
:10451000010B8DF83A009DF83A00682802BF3978FF
:104520006829622005D06C2804BF38786C2803D134
:1045300071208DF83A007F1C11A8B0603978B1F174
:10454000250023D01C3871D0001F02286ED91338E3
:1045500000F09780093869D0801E00F02B81401E42
:1045600000F0D480401E022860D9001F00F0CE80E9
:10457000401F30D0401E00F08480401E20D0C01E5E
:1045800009D0801E7DD0C01E7BD01BE1F068411C8D
:10459000F160252120E12868011D29600068B26AC8
:1045A0007060002A02D500F0A7FD07E0002100F0AE
:1045B000BFFD00281ABF7168401AB06A30610DE172
:1045C0002868011D296000210068CDE9000111A8BB
:1045D00070607821EAE09DF83A00622818D06828D7
:1045E00006D06A280BD06C2819D0712807D016E0A5
:1045F0002868011D29600068716A0180EEE02A6860
:10460000101D28601268706AC117C2E90001E5E058
:104610002868011D29600068716A0170DEE0286861
:10462000011D29600068716A0160D7E02868C01D1B
:1046300020F00700286000F108022A60D0E900237A
:10464000CDE90023002B04D5F068421CF2602D2236
:104650000DE0308E820704D5F068421CF2602B22F8
:1046600005E0C00705D5F068421CF260202200F882
:104670000820F06811AA8018706000A800F0E2F924
:10468000ACE09DF83A006C2808BF2A6811D0712868
:1046900008BF2A6802D02A686A280AD1D21D22F0EF
:1046A00007022A60144604F108022A60D4E90023B4
:1046B00003E0131D2B6000231268CDE90023682856
:1046C00008BF92B207D0622808BFD2B203D07428C4
:1046D00018BF7A2802D10023CDE9002396F83000D4
:1046E00000075FD5DDE90023002B08BF002A59D061
:1046F00041F02000782855D1F068302200F80820D9
:10470000401C421CF26000F808104BE09DF83A0093
:1047100062280CD0682810D06A281AD06C2823D0C0
:10472000712816D074281FD07A280CD01CE0286875
:10473000021D2A6090F900201AE02868021D2A60F4
:10474000B0F9002014E02868021D2A6000230268E6
:104750000FE02868C01D20F00700286000F1080263
:104760002A60D0E9002304E02868021D2A6002685C
:10477000D317CDE90023002B04DAF068421CF26065
:104780002D220DE0308E820704D5F068421CF260C5
:104790002B2205E0C00705D5F068421CF2602022FC
:1047A00000F80820F06811AA8018706000A800F0D6
:1047B000C0F813E0F068411CF16029680A1D2A6006
:1047C000096809E0F068421CF260252200F8082020
:1047D00021B1F068421CF26000F80810F06AF1683C
:1047E000401AB169401A3169401AF169401A716979
:1047F000401A316AA0EB010996F830007F1C40078F
:1048000010D420208DF84000002409E0012310AAD4
:1048100000A9504600F03EFC002840F08580641C52
:104820004C45F3DBF4680DF1440B0AE01BF8011B67
:104830000298D0470290002876D0706A401C7062BF
:10484000641E002CF2D130208DF840004FF0000B98
:10485000B46909E0012310AA00A9504600F01AFC2F
:10486000002861D10BF1010BA345F3DB3469D6F8C5
:1048700004B00AE01BF8011B0298D0470290002800
:1048800052D0706A401C7062641E002CF2D130203D
:104890008DF840004FF0000BF46909E0012310AAE5
:1048A00000A9504600F0F6FB00283DD10BF1010BAA
:1048B000A345F3DB30697168746900EB010B09E013
:1048C0001BF8011B0298D047029068B3706A401C25
:1048D0007062641E002CF3D130208DF840004FF040
:1048E000000B346A08E0012310AA00A9504600F02A
:1048F000D1FBC8B90BF1010BA345F4DB96F83000EE
:1049000040077FF589AD20208DF84000002400E0AD
:10491000641C4C45BFF680AD012310AA00A9504687
:1049200000F0B8FB0028F3D04FF0FF3021B0BDE815
:10493000F08F2DE9FA47064682B035690A466F2A9C
:1049400008BF082705D041F02000782814BF0A27A7
:104950001027D6E900013C2480468946642A18BF06
:10496000692A05D1002903DAD8F1000869EB490961
:10497000B9F1000F08BFB8F1000F0CD1306B50B97E
:10498000082F3BD196F83800000737D530203B245C
:1049900085F83B0032E0CDE90089FB1740464946E7
:1049A0003A4600F0F1FBB846A8FB0023DDE9008998
:1049B000A8EB02023032A4F1010AD2B254463A2ADC
:1049C00003DB9DF80830513B9A180AF80520804611
:1049D0005FEA010908BFB8F1000F03D0F068611960
:1049E0008842D8D3082F09D196F83800000705D59A
:1049F000605D302802D0641E30206055C4F13C0058
:104A0000B0616119F160316B884207DA081A3062CF
:104A10004FF6EF71308F0840308710E000290ED537
:104A200096F8381001F01401102908D1716B7269E1
:104A3000891A326A891A081A0128A8BF306204B09C
:104A4000BDE8F0872DE9F24F04468EB0D4E90001AD
:104A5000CDE9020104AE9DF8380040F0200000903E
:104A600061280AD0206B002848BF062004D404BF68
:104A70000098672801D1012020636168C1F30A50C2
:104A800040F2FF7290421CD1080304BF2068002846
:104A900009D10320A0619DF8380061381A2836D367
:104AA0000FF2346108E00320A0619DF838006138FE
:104AB0001A2829D30FF21861E068032200F0DCFB0A
:104AC000B5E1012816DA204600F011FC012811DBBF
:104AD000002700200099612920D1E168302201F8E7
:104AE000012B4A1CE2609DF83820612A0CBF782215
:104AF00058220FE0626840F2FE3161F31E52471AFD
:104B000062604FF0FF30E5E70FF2C051D4E70FF2DB
:104B1000C451D1E70A706169891C616110B900252F
:104B200000277BE10098612840F09680206B0028E8
:104B30004CBF2125451CDDE902012DB26E1CD4E9D4
:104B400000890022002300F0F3FB3ABF89F0004007
:104B5000CDE90280CDE902893F1F8DF810200DF1CB
:104B6000110801E000F20708012E32DBDDE9020145
:104B70000022002300F0F4FB2BD21C2102A800F03D
:104B800007FCDDE9020100F089FCF61F8146012ED9
:104B900009DB00F0AFFC02460B46DDE9020100F044
:104BA000C1FCCDE9020108F20700072105E009F088
:104BB0000F0200F8012D4FEA2919B9F1010F01DBAD
:104BC000491EF4D5491E5CBF002200F8012DF9D51D
:104BD000C8E70DF11100A8EB00010DF11106A94283
:104BE000B8BF0D462DB228002FD4884206DA04A99A
:104BF000411849780829A8BF0F2100DA002104AA2A
:104C0000821800E06D1E12F80139401E8B42F9D067
:104C10000F2904D104A941184A78521C4A7000286F
:104C200002D504AE6D1C3F1D2DB2681E0DD4811936
:104C30000A783032D2B23A2A03DB9DF838303A3B58
:104C40009A1801F80129401EF2D5206B002840F186
:104C5000E580681E2063E1E0DDE902010022002317
:104C600000F066FB3CBF81F00041CDE902013FB29C
:104C700047F2975078434849DFF820B190FBF1F7AD
:104C80003FB2C7F107069246012E19DBDDE9028922
:104C9000F00707D552465B464046494600F002FD04
:104CA0008046894676105046594652465B4600F08B
:104CB000F9FC82468B46002EEAD1CDE9028921E03B
:104CC00076429046DFF8D89012E0F00707D55246BA
:104CD0005B464046494600F0E5FC80468946761032
:104CE0005046594652465B4600F0DCFC82468B46F5
:104CF000002EEAD1DDE9020142464B4600F0A4FD58
:104D0000CDE90201009866280CBF07F10A000620D1
:104D1000216B4518142DA8BF132530208DF81000E5
:104D20000DF11106DFF87C90012D3DDBDDE902017C
:104D300000F0CAFB06F1080104220A23B0FBF3F3DA
:104D400003EB8306A0EB4600303001F8010D0A208A
:104D5000B3FBF0F000EB8006A3EB4603303301F821
:104D6000013D521EE9D1083D01F10806012DDBDBB2
:104D7000DDE9020100F0A8FB00F0C6FB02460B468D
:104D8000DDE9020100F0CEFB00224B4600F08AFC78
:104D9000CDE90201CAE700BFA0860100000024405F
:104DA0000000F03F84D797410DF11100301A0DF14A
:104DB000110602E0401E7F1E761C31783029F9D0A2
:104DC0000099662902D13FB2791C03E065290CBF26
:104DD00001210021226B8D182DB2A842B8BF0546D3
:104DE0002DB229001AD4814204DA885D3528A8BF83
:104DF000392000DA30208A19521E00E06D1E12F8A8
:104E00000139491E8342F9D0392802D1885D401CFE
:104E10008855002902D5761E6D1C7F1C3FB29DF877
:104E2000381000972BB23246204600F003F80FB03E
:104E3000BDE8F08F2DE9F043054685B01E46D5F854
:104E4000308089461746012E02DA01260FF28C27A0
:104E500049F02000BDF93040662808BF641C17D017
:104E6000672840F0818014F1040FC0F2838044452C
:104E700080F2808095F83800641C000702D4464513
:104E8000B8BFB04624B2B8EB040848BF4FF00008E2
:104E9000E868A96924B2012C25DA30234A1C0B5496
:104EA000B8F1010F03DA95F83810090702D52E2161
:104EB0001154521CAA6118EB040FB8BFC8F10004CA
:104EC00024B26142A0446962B045B8BF464636B2DA
:104ED000EE613246AB693946181800F0CDF9A8EBFF
:104EE0000600A862BFE00818A64218DA3246394622
:104EF00000F0C2F9A9697118A961A01B6862B8F134
:104F0000010F03DA95F83800000705D5E8682E226E
:104F10000A54E869401CE861C5F82880A3E02246ED
:104F2000394600F0A9F9A8692018361BB8F1010F1D
:104F300003DA95F83810090703D5E9682E224254A0
:104F4000401C36B2A861B045B8BF4646EB6836B2E1
:104F50003246E119C01800F08FF9A8693018A8612D
:104F6000A8EB060068627EE04846612816D14FF043
:104F7000700917E0464504DA95F83810090758BF5C
:104F8000B046B8F1010848BF4FF00008B9F1670F0B
:104F900014BF4FF045094FF0650903E0412808BFF1
:104FA0004FF05009A969E86817F8013B0B544A1CF7
:104FB000B8F1010F05DA95F83810090758BFAA6152
:104FC00017D52E211154531CAB61B8F1010F10DB22
:104FD000761E36B2B045B8BF464636B2324639467E
:104FE000181800F049F9A8693018A861A8EB060064
:104FF0006862A869E9684718200007F8019B03D494
:105000002B2007F8010B03E02D2107F8011B444278
:1050100000260DF1080808E00A2200A800F037FD7C
:10502000019808F8010B761C009C21B20129F3DAE3
:10503000022E06DA49F02000652804BF302007F868
:10504000010B4EB9302007F8010B07E0761E02A8CD
:10505000305C303007F8010B012EF7DAA869E968F7
:105060004018381AE86195F8380000F0140010284C
:105070000DD16869A9690818696A0818E9690818EA
:10508000A96A0818696B8842BCBF081A286205B073
:10509000BDE8F083F8B504460D4616461F460020CD
:1050A00004E0E86A401CE8627F1E002047B116F861
:1050B000011BA868A047A8600028F2D14FF0FF307C
:1050C000F2BD0000686A6C747A4C00006E616E007C
:1050D0004E414E00696E6600494E460030000000A9
:1050E0000278C9B28A421AB11CBF10F8012FF9E741
:1050F00018BF00207047000000F10103810704D0B1
:1051000010F8011B89B18107FAD10268B2F10131AF
:10511000914311F0803F04BF50F8042FF6E710F8D8
:10512000011B11B110F8011BFBE7C01A704700000A
:10513000C9B2830706D0521E22D310F8013B994210
:10514000F7D11FE0083A13D302F1040241EA01212A
:1051500041EA014150F8043B121F21BF4B40A3F12B
:10516000013C2CEA030C1CF0803FF3D0C9B2001FB5
:10517000083210F8013B521E28BF91EA030FF8D8FD
:1051800018BF0120401E70471B4213D1094236D17F
:105190002AB18446B0FBF2F002FB10C2704700F067
:1051A0007DBCFCD30022002370470B0002000021CD
:1051B00000207047904271EB030CF6D370B5B1FA42
:1051C00081F4B3FA83F52C1BA340C4F1200532FA15
:1051D00005F63343A2405FF00046E64002E05B087C
:1051E0005FEA3202841A71EB030524BF2046294688
:1051F0007641F4D302000B003000002170BD012A7B
:10520000CFD970B5140C20D0B1FA81F4B2FA82F57E
:10521000C4F120046419B4F12006D6D3B2405FF083
:105220000044F440002502E052085FEA3303C61A46
:1052300071EB020E24BF3046714664416D41F3D3D9
:1052400002000B002000290070BD0C46B1FBF2F1FA
:1052500002FB11452D0445EA1045B5FBF2F402FBB3
:10526000145580B240EA0545B5FBF2F002FB10523E
:1052700040EA044070BD000062B38B0708D0521EA4
:1052800011F8013B00F8013B00F024808B07F6D1B8
:10529000830740F0208000BF103A07D330B4B1E854
:1052A0003810103AA0E83810F9D230BC530724BFA8
:1052B000B1E80810A0E8081044BF51F8043B40F8DA
:1052C000043BD20724BF31F8022B20F8022B44BF45
:1052D0000B7803707047083A07D3B1E80810083A12
:1052E00040F8043B40F804CBF7D25307E4E730B46E
:1052F000436803F0004201211B031B0B436004BF02
:105300000368002B08D10DE00368DD0F45EA440473
:1053100044605B000360491E4468E302F4D5230344
:105320001B0B436043681A434260084630BC704719
:105330004FF4001C1CEB410F94BF1CEB430F09E022
:1053400041EA030C50EA4C0C52EA0C0C03D299428D
:1053500008BF9042704714BF8B42824270470000E2
:105360004FF4001C1CEB410F94BF1CEB430F09E0F2
:1053700041EA030C50EA4C0C52EA0C0C03D28B426B
:1053800008BF8242704714BF9942904270470000A4
:1053900070B504460D466068C0F30A5040F2FF71D4
:1053A000884207D16068000304BF2068002817D036
:1053B000022070BD20B92046FFF799FF012867DA67
:1053C000012D0FDB40F2FF71091A8D420AD360688C
:1053D000002847BF00202F4900202F49C4E90001C1
:1053E000012070BD4142A942616806DA6FF31E5187
:1053F000401941EA0050606041E0401E63680122AC
:10540000451962F31F5305F1350001F00041636057
:10541000352803D361600020206070BD002215F1A3
:105420001F0F04DA22682360002020356060684284
:1054300013D0521E25689241C0F12003D2439D40F3
:1054400045EAD27225686668C54006FA03F32B4325
:105450002360636823FA00F060606068084360605E
:10546000B2F1004F03D80DD12078C0070AD52068CB
:10547000401C2060206828B96068401C60604FF0C4
:10548000FF3070BD6068884204BF20680028F6D1F4
:10549000002070BD0000F0FF0000F07FF446400DDA
:1054A00040EAC120490006D200F014F8004248BF8B
:1054B0006FF00040604700F00DF84FF00041884267
:1054C0008CBF084640426047400D40EAC120490079
:1054D00080F00D8040F00040490DA1F58061491C2D
:1054E00005D4D1F11F0154BFC840C01770474FF019
:1054F00000007047010040F10980F446404200F08E
:1055000005F851F000416047010000BF09D0B0FA32
:1055100080F18840C91CC1F58461090501EBD021E7
:105520004005704770B44FF0004591EA030F44BF47
:105530006B4000F0BFBA00BF841A71EB030604D2BF
:105540006E40001BB141121973414FF4001C1CEB5B
:10555000410F34BF7CEB430684E00C0DA4EB1356E3
:10556000362E7DDC012E43DC45EAC32343EA525349
:1055700012BFD20292025B08240545EAC12141EA2A
:105580005051D2EBC020994125D407D1B0FA80F612
:1055900010FA06F164D00020203608E0B1FA81F656
:1055A000B140C6F1200220FA02F21143B0404FEAA6
:1055B000F474B4EB465434F001064FEA74040AD88C
:1055C000D6F50016760D04F00044F04061FA06F2BC
:1055D0005040F1404840C00A40EA415021F00041AB
:1055E00028BF5FEA500550F1000044EBD12137E0BD
:1055F00045EAC323DB0A45EAC121C90AB6F1200501
:105600000EDD42EA0242120CC5F1200603FA06F64C
:10561000EB4042EA06056D42984161F100010DE060
:1056200062FA06F5F240554063FA06FC82EA0C0283
:10563000F3405A406D42904161EB030111F4801F29
:1056400005D1641E620502D06D004041494121F43C
:105650008011430875F1004350F1000041EB045103
:1056600070BC70471CEB410F15D223F0004352EA87
:1056700043060BD04FEA4C0CBCEB410F04D80C0D89
:10568000661E342EB7DDEBE7801A994150EA4106D9
:1056900008BF0021E4E708BF1CEB430F28BF6FF0F1
:1056A0000001DDE7B0B581EA030C0CF0004C40F2DC
:1056B000FF7515EA11541DBF15EA1357AC42AF42EE
:1056C00039E0E41923EA455343F48013C90241F059
:1056D000004141EA505EC7021100A7FB0202002808
:1056E0004FF00000EEFB01204FF00001E3FB07212B
:1056F00018BF42F00102401800214941E3FB0E01AE
:10570000A4F580640F0302D252004041494154F194
:1057100001046CDD470872F1004250F1000051EBCA
:105720000451A1F580115CBF41EA0C01B0BD4CEA07
:1057300005510020B0BD05EA1357AC4214BFAF427B
:1057400041E050EA410E1CBF52EA430E02E06146BE
:105750000020B0BD24423C441BD15FEA070EF6D0C6
:10576000090302BF01460020AEF1140EB1FA81F721
:10577000AEEB070401FA07FE0C37C7F1200100FA6F
:1057800007F7C8404EEA000E23EA455343F480135E
:10579000A2E733F00043B3FA83F704BFB2FA82FE04
:1057A00077440B3FE41BB7F1200E2FBF02FA0EF334
:1057B000BB40C7F1200E22FA0EFE38BF43EA0E03AB
:1057C000BA40641C82E750EA410E14BF52EA430E0D
:1057D0006FF000014FF4001717EB430F8ABF194613
:1057E00017EB410FB5E74CEA05510020B0BDD4F1ED
:1057F0000104B4F120070FDAC4F12007520828BFD2
:1058000042F0010210FA07F501FA07F7E1BF2A4357
:10581000E0403843E1400FE0352C98DCC7F120042C
:1058200052EA400220FA07F218BF42F0010231FAB0
:1058300007F0A1400A43002172F1004250F100003C
:1058400051EB0C01B0BD0000F0B540F2FF7581EAEC
:10585000030C0CF0004C15EA11541DBF15EA135748
:10586000AC42AF42E5E0BC41C1F31301C3F3130303
:10587000801A994143F4801304D2641E40004941C8
:1058800080185941C90241EA5051B1FBF3F603FBBC
:105890001611A2FB0675D7EBC020A94102D2761ED5
:1058A00080185941C90241EA5051B1FBF3FE03FB94
:1058B0001E11A2FB0E75D7EBC020A94103D2AEF199
:1058C000010E80185941890241EA9051760546EA55
:1058D0008E2EB1FBF3F603FB1611A2FB0675D7EB78
:1058E0008020A94102D2761E80185941C90241EA9E
:1058F00050514EEA060EB1FBF3F603FB1611A2FB64
:105900000675D7EBC020A94102D2761E80185941F6
:10591000C90241EA5051B1FBF3F703FB1711A2FB97
:105920000735D3EBC020A94167F100070CBF004247
:1059300047F0010766F3D5274FEA1E31B80814F582
:10594000806412DDBD0775F1004250EB0E5051EB43
:10595000045111F5801F5CBF41EA0C01F0BD4CF011
:105960007F6141F0E0410020F0BDBD076D0840EAD5
:105970000E5041F48011D4F10104B4F120060ADA8A
:10598000C4F120060200E04001FA06F3E1401843AA
:10599000B24015430EE0342C13DCC6F1200445EA76
:1059A00040056D0820FA06F2154321FA06F0A140E1
:1059B0000D43002175F1004250F1000051EB0C0144
:1059C000F0BD00205FEA0C01F0BDCFB992185B4139
:1059D000B3FA83F704BFB2FA82F6BF190B3FB7F1EF
:1059E00020062FBF02FA06F3BB40C7F1200622FAB9
:1059F00006F638BF3343BA401CB1E419641E33E7DE
:105A00007F4231F00041B1FA81F404BFB0FA80F670
:105A1000A4190B3CB4F120062FBF00FA06F1A140F7
:105A2000C4F1200620FA06F638BF3143A0403C1BE3
:105A30001AE7AC421ABF05EA1357AF4212E050EA28
:105A400041061CBF52EA4306BFE750EA4107304611
:105A500061461CBF41EA0551F0BD52EA430C08BF44
:105A6000C143F0BD00204FF4001616EB410F98BF64
:105A700016EB430F08BF16EB410F24BFC14305E0EF
:105A800016EB430F0CBF61464CEA0551F0BD91FB8C
:105A9000F2F303FB1211C0E90031704770470000B8
:105AA00070B44FF0004591EA030C44BF6B40FFF720
:105AB00043BD00BF841A71EB030603D2001BB14142
:105AC000121973414FF4001C1CEB410F34BF7CEBE7
:105AD000430443E00C0DA4EB1356352E50DC45EA8D
